{
  "contractName": "VendingMachine",
  "abi": [
    {
      "inputs": [],
      "stateMutability": "nonpayable",
      "type": "constructor"
    },
    {
      "inputs": [
        {
          "internalType": "address",
          "name": "",
          "type": "address"
        }
      ],
      "name": "donutBalances",
      "outputs": [
        {
          "internalType": "uint256",
          "name": "",
          "type": "uint256"
        }
      ],
      "stateMutability": "view",
      "type": "function",
      "constant": true
    },
    {
      "inputs": [],
      "name": "owner",
      "outputs": [
        {
          "internalType": "address",
          "name": "",
          "type": "address"
        }
      ],
      "stateMutability": "view",
      "type": "function",
      "constant": true
    },
    {
      "inputs": [],
      "name": "getVendingMachineBalance",
      "outputs": [
        {
          "internalType": "uint256",
          "name": "",
          "type": "uint256"
        }
      ],
      "stateMutability": "view",
      "type": "function",
      "constant": true
    },
    {
      "inputs": [
        {
          "internalType": "uint256",
          "name": "amount",
          "type": "uint256"
        }
      ],
      "name": "restock",
      "outputs": [],
      "stateMutability": "nonpayable",
      "type": "function"
    },
    {
      "inputs": [
        {
          "internalType": "uint256",
          "name": "amount",
          "type": "uint256"
        }
      ],
      "name": "purchase",
      "outputs": [],
      "stateMutability": "payable",
      "type": "function",
      "payable": true
    }
  ],
  "bytecode": "0x608060405234801561000f575f80fd5b50335f806101000a81548173ffffffffffffffffffffffffffffffffffffffff021916908373ffffffffffffffffffffffffffffffffffffffff160217905550606460015f3073ffffffffffffffffffffffffffffffffffffffff1673ffffffffffffffffffffffffffffffffffffffff1681526020019081526020015f20819055506107fa8061009f5f395ff3fe608060405260043610610049575f3560e01c80638da5cb5b1461004d5780639a020d8a14610077578063c21a702a146100b3578063e7644d34146100db578063efef39a114610105575b5f80fd5b348015610058575f80fd5b50610061610121565b60405161006e919061043e565b60405180910390f35b348015610082575f80fd5b5061009d60048036038101906100989190610485565b610144565b6040516100aa91906104c8565b60405180910390f35b3480156100be575f80fd5b506100d960048036038101906100d4919061050b565b610159565b005b3480156100e6575f80fd5b506100ef61023c565b6040516100fc91906104c8565b60405180910390f35b61011f600480360381019061011a919061050b565b610280565b005b5f8054906101000a900473ffffffffffffffffffffffffffffffffffffffff1681565b6001602052805f5260405f205f915090505481565b5f8054906101000a900473ffffffffffffffffffffffffffffffffffffffff1673ffffffffffffffffffffffffffffffffffffffff163373ffffffffffffffffffffffffffffffffffffffff16146101e6576040517f08c379a00000000000000000000000000000000000000000000000000000000081526004016101dd906105b6565b60405180910390fd5b8060015f3073ffffffffffffffffffffffffffffffffffffffff1673ffffffffffffffffffffffffffffffffffffffff1681526020019081526020015f205f8282546102329190610601565b9250508190555050565b5f60015f3073ffffffffffffffffffffffffffffffffffffffff1673ffffffffffffffffffffffffffffffffffffffff1681526020019081526020015f2054905090565b671bc16d674ec80000816102949190610634565b3410156102d6576040517f08c379a00000000000000000000000000000000000000000000000000000000081526004016102cd906106e5565b60405180910390fd5b8060015f3073ffffffffffffffffffffffffffffffffffffffff1673ffffffffffffffffffffffffffffffffffffffff1681526020019081526020015f20541015610356576040517f08c379a000000000000000000000000000000000000000000000000000000000815260040161034d90610773565b60405180910390fd5b8060015f3073ffffffffffffffffffffffffffffffffffffffff1673ffffffffffffffffffffffffffffffffffffffff1681526020019081526020015f205f8282546103a29190610791565b925050819055508060015f3373ffffffffffffffffffffffffffffffffffffffff1673ffffffffffffffffffffffffffffffffffffffff1681526020019081526020015f205f8282546103f59190610601565b9250508190555050565b5f73ffffffffffffffffffffffffffffffffffffffff82169050919050565b5f610428826103ff565b9050919050565b6104388161041e565b82525050565b5f6020820190506104515f83018461042f565b92915050565b5f80fd5b6104648161041e565b811461046e575f80fd5b50565b5f8135905061047f8161045b565b92915050565b5f6020828403121561049a57610499610457565b5b5f6104a784828501610471565b91505092915050565b5f819050919050565b6104c2816104b0565b82525050565b5f6020820190506104db5f8301846104b9565b92915050565b6104ea816104b0565b81146104f4575f80fd5b50565b5f81359050610505816104e1565b92915050565b5f602082840312156105205761051f610457565b5b5f61052d848285016104f7565b91505092915050565b5f82825260208201905092915050565b7f6f6e6c7920746865206f776e65722063616e20726573746f636b2074686973205f8201527f6d616368696e6500000000000000000000000000000000000000000000000000602082015250565b5f6105a0602783610536565b91506105ab82610546565b604082019050919050565b5f6020820190508181035f8301526105cd81610594565b9050919050565b7f4e487b71000000000000000000000000000000000000000000000000000000005f52601160045260245ffd5b5f61060b826104b0565b9150610616836104b0565b925082820190508082111561062e5761062d6105d4565b5b92915050565b5f61063e826104b0565b9150610649836104b0565b9250828202610657816104b0565b9150828204841483151761066e5761066d6105d4565b5b5092915050565b7f596f75206d75737420706179206174206c6561737420322065746865722070655f8201527f7220646f6e757400000000000000000000000000000000000000000000000000602082015250565b5f6106cf602783610536565b91506106da82610675565b604082019050919050565b5f6020820190508181035f8301526106fc816106c3565b9050919050565b7f4e6f7420656e6f75676820646f6e75747320696e2073746f636b20746f2066755f8201527f6c66696c6c207075726368617365207265717565737400000000000000000000602082015250565b5f61075d603683610536565b915061076882610703565b604082019050919050565b5f6020820190508181035f83015261078a81610751565b9050919050565b5f61079b826104b0565b91506107a6836104b0565b92508282039050818111156107be576107bd6105d4565b5b9291505056fea26469706673582212209a861d7fbc87d4e59b66fb47a523784846eb48e76b0b8690e5bbd66c34c9c64864736f6c63430008140033",
  "immutableReferences": {},
  "source": "// SPDX-License-Identifier: MIT\npragma solidity ^0.8.11;\n\ncontract VendingMachine {\n    address public owner;\n    mapping (address => uint) public donutBalances;\n\n    constructor(){\n        owner = msg.sender;\n        donutBalances[address(this)] = 100;\n    }\n\n    function getVendingMachineBalance() public view returns (uint){\n        return donutBalances[address(this)];\n    }\n\n    function restock(uint amount) public {\n        require(msg.sender == owner, \"only the owner can restock this machine\");\n        donutBalances[address(this)] += amount;\n    }\n\n    function purchase(uint amount) public payable {\n        require(msg.value >= amount * 2 ether, \"You must pay at least 2 ether per donut\" );\n        require(donutBalances[address(this)] >= amount, \"Not enough donuts in stock to fulfill purchase request\");\n        donutBalances[address(this)] -= amount;\n        donutBalances[msg.sender] += amount;  \n    }\n}",
  "sourcePath": "D:\\GIthubRepo\\last2\\vending-machine\\contracts\\Vending_Machine.sol",
  "compiler": {
    "name": "solc",
    "version": "0.8.20+commit.a1b79de6.Emscripten.clang"
  },
  "schemaVersion": "3.4.14",
  "updatedAt": "2023-06-06T12:36:51.244Z",
  "networkType": "ethereum",
  "devdoc": {
    "kind": "dev",
    "methods": {},
    "version": 1
  },
  "userdoc": {
    "kind": "user",
    "methods": {},
    "version": 1
  }
}